{
  "contractName": "BaseLottery",
  "abi": [
    {
      "anonymous": false,
      "inputs": [
        {
          "indexed": true,
          "internalType": "address",
          "name": "previousOwner",
          "type": "address"
        },
        {
          "indexed": true,
          "internalType": "address",
          "name": "newOwner",
          "type": "address"
        }
      ],
      "name": "OwnershipTransferred",
      "type": "event"
    },
    {
      "stateMutability": "payable",
      "type": "fallback",
      "payable": true
    },
    {
      "inputs": [],
      "name": "owner",
      "outputs": [
        {
          "internalType": "address",
          "name": "",
          "type": "address"
        }
      ],
      "stateMutability": "view",
      "type": "function",
      "constant": true
    },
    {
      "inputs": [],
      "name": "playersCount",
      "outputs": [
        {
          "internalType": "uint32",
          "name": "",
          "type": "uint32"
        }
      ],
      "stateMutability": "view",
      "type": "function",
      "constant": true
    },
    {
      "inputs": [
        {
          "internalType": "uint32",
          "name": "",
          "type": "uint32"
        }
      ],
      "name": "playersMap",
      "outputs": [
        {
          "internalType": "uint32",
          "name": "ticket",
          "type": "uint32"
        },
        {
          "internalType": "address",
          "name": "wallet",
          "type": "address"
        }
      ],
      "stateMutability": "view",
      "type": "function",
      "constant": true
    },
    {
      "inputs": [],
      "name": "renounceOwnership",
      "outputs": [],
      "stateMutability": "nonpayable",
      "type": "function"
    },
    {
      "inputs": [],
      "name": "ticketPrice",
      "outputs": [
        {
          "internalType": "uint256",
          "name": "",
          "type": "uint256"
        }
      ],
      "stateMutability": "view",
      "type": "function",
      "constant": true
    },
    {
      "inputs": [],
      "name": "todaysPrize",
      "outputs": [
        {
          "internalType": "uint256",
          "name": "",
          "type": "uint256"
        }
      ],
      "stateMutability": "view",
      "type": "function",
      "constant": true
    },
    {
      "inputs": [
        {
          "internalType": "address",
          "name": "newOwner",
          "type": "address"
        }
      ],
      "name": "transferOwnership",
      "outputs": [],
      "stateMutability": "nonpayable",
      "type": "function"
    },
    {
      "stateMutability": "payable",
      "type": "receive",
      "payable": true
    },
    {
      "inputs": [
        {
          "internalType": "uint32",
          "name": "_ticket",
          "type": "uint32"
        }
      ],
      "name": "buyTicket",
      "outputs": [],
      "stateMutability": "payable",
      "type": "function",
      "payable": true
    },
    {
      "inputs": [],
      "name": "getBalance",
      "outputs": [
        {
          "internalType": "uint256",
          "name": "",
          "type": "uint256"
        }
      ],
      "stateMutability": "view",
      "type": "function",
      "constant": true
    }
  ],
  "bytecode": "0x608060405260008060146101000a81548163ffffffff021916908363ffffffff16021790555066038d7ea4c68000600155600060025534801561004157600080fd5b5061005e61005361006360201b60201c565b61006b60201b60201c565b61012f565b600033905090565b60008060009054906101000a900473ffffffffffffffffffffffffffffffffffffffff169050816000806101000a81548173ffffffffffffffffffffffffffffffffffffffff021916908373ffffffffffffffffffffffffffffffffffffffff1602179055508173ffffffffffffffffffffffffffffffffffffffff168173ffffffffffffffffffffffffffffffffffffffff167f8be0079c531659141344cd1fd0a4f28419497f9722a3daafe3b4186f6b6457e060405160405180910390a35050565b6109d78061013e6000396000f3fe60806040526004361061008a5760003560e01c8063715018a611610059578063715018a614610143578063777f58981461015a5780638da5cb5b14610185578063a3f67d6d146101b0578063f2fde38b146101db57610091565b806312065fe0146100935780631209b1f6146100be57806321e8ec2d146100e9578063354770701461012757610091565b3661009157005b005b34801561009f57600080fd5b506100a8610204565b6040516100b5919061064f565b60405180910390f35b3480156100ca57600080fd5b506100d361020c565b6040516100e0919061064f565b60405180910390f35b3480156100f557600080fd5b50610110600480360381019061010b91906106ab565b610212565b60405161011e929190610728565b60405180910390f35b610141600480360381019061013c91906106ab565b610266565b005b34801561014f57600080fd5b506101586103a5565b005b34801561016657600080fd5b5061016f61042d565b60405161017c919061064f565b60405180910390f35b34801561019157600080fd5b5061019a610433565b6040516101a79190610751565b60405180910390f35b3480156101bc57600080fd5b506101c561045c565b6040516101d2919061076c565b60405180910390f35b3480156101e757600080fd5b5061020260048036038101906101fd91906107b3565b610472565b005b600047905090565b60015481565b60036020528060005260406000206000915090508060000160009054906101000a900463ffffffff16908060000160049054906101000a900473ffffffffffffffffffffffffffffffffffffffff16905082565b600154341461027457600080fd5b6000601481819054906101000a900463ffffffff16809291906102969061080f565b91906101000a81548163ffffffff021916908363ffffffff1602179055505060405180604001604052808263ffffffff1681526020013373ffffffffffffffffffffffffffffffffffffffff16815250600360008060149054906101000a900463ffffffff1663ffffffff1663ffffffff16815260200190815260200160002060008201518160000160006101000a81548163ffffffff021916908363ffffffff16021790555060208201518160000160046101000a81548173ffffffffffffffffffffffffffffffffffffffff021916908373ffffffffffffffffffffffffffffffffffffffff1602179055509050506001546002600082825461039b919061083c565b9250508190555050565b6103ad61056a565b73ffffffffffffffffffffffffffffffffffffffff166103cb610433565b73ffffffffffffffffffffffffffffffffffffffff1614610421576040517f08c379a0000000000000000000000000000000000000000000000000000000008152600401610418906108ef565b60405180910390fd5b61042b6000610572565b565b60025481565b60008060009054906101000a900473ffffffffffffffffffffffffffffffffffffffff16905090565b600060149054906101000a900463ffffffff1681565b61047a61056a565b73ffffffffffffffffffffffffffffffffffffffff16610498610433565b73ffffffffffffffffffffffffffffffffffffffff16146104ee576040517f08c379a00000000000000000000000000000000000000000000000000000000081526004016104e5906108ef565b60405180910390fd5b600073ffffffffffffffffffffffffffffffffffffffff168173ffffffffffffffffffffffffffffffffffffffff16141561055e576040517f08c379a000000000000000000000000000000000000000000000000000000000815260040161055590610981565b60405180910390fd5b61056781610572565b50565b600033905090565b60008060009054906101000a900473ffffffffffffffffffffffffffffffffffffffff169050816000806101000a81548173ffffffffffffffffffffffffffffffffffffffff021916908373ffffffffffffffffffffffffffffffffffffffff1602179055508173ffffffffffffffffffffffffffffffffffffffff168173ffffffffffffffffffffffffffffffffffffffff167f8be0079c531659141344cd1fd0a4f28419497f9722a3daafe3b4186f6b6457e060405160405180910390a35050565b6000819050919050565b61064981610636565b82525050565b60006020820190506106646000830184610640565b92915050565b600080fd5b600063ffffffff82169050919050565b6106888161066f565b811461069357600080fd5b50565b6000813590506106a58161067f565b92915050565b6000602082840312156106c1576106c061066a565b5b60006106cf84828501610696565b91505092915050565b6106e18161066f565b82525050565b600073ffffffffffffffffffffffffffffffffffffffff82169050919050565b6000610712826106e7565b9050919050565b61072281610707565b82525050565b600060408201905061073d60008301856106d8565b61074a6020830184610719565b9392505050565b60006020820190506107666000830184610719565b92915050565b600060208201905061078160008301846106d8565b92915050565b61079081610707565b811461079b57600080fd5b50565b6000813590506107ad81610787565b92915050565b6000602082840312156107c9576107c861066a565b5b60006107d78482850161079e565b91505092915050565b7f4e487b7100000000000000000000000000000000000000000000000000000000600052601160045260246000fd5b600061081a8261066f565b915063ffffffff821415610831576108306107e0565b5b600182019050919050565b600061084782610636565b915061085283610636565b9250827fffffffffffffffffffffffffffffffffffffffffffffffffffffffffffffffff03821115610887576108866107e0565b5b828201905092915050565b600082825260208201905092915050565b7f4f776e61626c653a2063616c6c6572206973206e6f7420746865206f776e6572600082015250565b60006108d9602083610892565b91506108e4826108a3565b602082019050919050565b60006020820190508181036000830152610908816108cc565b9050919050565b7f4f776e61626c653a206e6577206f776e657220697320746865207a65726f206160008201527f6464726573730000000000000000000000000000000000000000000000000000602082015250565b600061096b602683610892565b91506109768261090f565b604082019050919050565b6000602082019050818103600083015261099a8161095e565b905091905056fea26469706673582212209a8a62734bd103eb5c2470ccdec5a8130404120bd2afe9082ccb3dd948340fad64736f6c63430008090033",
  "immutableReferences": {},
  "source": "// SPDX-License-Identifier: MIT\r\npragma solidity >=0.4.22;\r\n\r\nimport \"../contracts/Ownable.sol\";\r\n\r\ncontract BaseLottery is Ownable{\r\n    // price for 1 ticket\r\n    uint32 public playersCount = 0;\r\n    uint public ticketPrice = 0.001 ether;\r\n    uint public todaysPrize = 0;\r\n    \r\n\r\n    struct Player{\r\n        uint32 ticket;\r\n        address wallet;\r\n    }\r\n    //store all current players\r\n    mapping (uint32 => Player) public playersMap;\r\n    \r\n    //function to buy ticket\r\n    function buyTicket(uint32 _ticket) external payable{\r\n        require(msg.value == ticketPrice);\r\n        playersCount++;\r\n        playersMap[playersCount] = Player(_ticket, msg.sender);\r\n        todaysPrize += ticketPrice;\r\n    }\r\n\r\n    //get Pirze\r\n    function getBalance() public view returns (uint256) {\r\n        return address(this).balance;\r\n    }\r\n\r\n    fallback() external payable {}\r\n    receive() external payable {}\r\n}",
  "sourcePath": "C:\\Users\\Admin\\Documents\\Blockchain\\Lottery\\contracts\\BaseLottery.sol",
  "compiler": {
    "name": "solc",
    "version": "0.8.9+commit.e5eed63a.Emscripten.clang"
  },
  "schemaVersion": "3.4.3",
  "updatedAt": "2021-10-21T15:54:40.964Z",
  "networkType": "ethereum",
  "devdoc": {
    "kind": "dev",
    "methods": {
      "owner()": {
        "details": "Returns the address of the current owner."
      },
      "renounceOwnership()": {
        "details": "Leaves the contract without owner. It will not be possible to call `onlyOwner` functions anymore. Can only be called by the current owner. NOTE: Renouncing ownership will leave the contract without an owner, thereby removing any functionality that is only available to the owner."
      },
      "transferOwnership(address)": {
        "details": "Transfers ownership of the contract to a new account (`newOwner`). Can only be called by the current owner."
      }
    },
    "version": 1
  },
  "userdoc": {
    "kind": "user",
    "methods": {},
    "version": 1
  }
}