{
  "contractName": "BaseLottery",
  "abi": [
    {
      "anonymous": false,
      "inputs": [
        {
          "indexed": true,
          "internalType": "address",
          "name": "previousOwner",
          "type": "address"
        },
        {
          "indexed": true,
          "internalType": "address",
          "name": "newOwner",
          "type": "address"
        }
      ],
      "name": "OwnershipTransferred",
      "type": "event"
    },
    {
      "stateMutability": "payable",
      "type": "fallback",
      "payable": true
    },
    {
      "inputs": [],
      "name": "owner",
      "outputs": [
        {
          "internalType": "address",
          "name": "",
          "type": "address"
        }
      ],
      "stateMutability": "view",
      "type": "function",
      "constant": true
    },
    {
      "inputs": [],
      "name": "playersCount",
      "outputs": [
        {
          "internalType": "uint256",
          "name": "",
          "type": "uint256"
        }
      ],
      "stateMutability": "view",
      "type": "function",
      "constant": true
    },
    {
      "inputs": [
        {
          "internalType": "uint256",
          "name": "",
          "type": "uint256"
        }
      ],
      "name": "playersMap",
      "outputs": [
        {
          "internalType": "uint256",
          "name": "id",
          "type": "uint256"
        },
        {
          "internalType": "address",
          "name": "wallet",
          "type": "address"
        },
        {
          "internalType": "uint256",
          "name": "ticket",
          "type": "uint256"
        }
      ],
      "stateMutability": "view",
      "type": "function",
      "constant": true
    },
    {
      "inputs": [],
      "name": "renounceOwnership",
      "outputs": [],
      "stateMutability": "nonpayable",
      "type": "function"
    },
    {
      "inputs": [],
      "name": "ticketPrice",
      "outputs": [
        {
          "internalType": "uint256",
          "name": "",
          "type": "uint256"
        }
      ],
      "stateMutability": "view",
      "type": "function",
      "constant": true
    },
    {
      "inputs": [
        {
          "internalType": "address",
          "name": "newOwner",
          "type": "address"
        }
      ],
      "name": "transferOwnership",
      "outputs": [],
      "stateMutability": "nonpayable",
      "type": "function"
    },
    {
      "stateMutability": "payable",
      "type": "receive",
      "payable": true
    },
    {
      "inputs": [
        {
          "internalType": "uint256",
          "name": "_ticket",
          "type": "uint256"
        }
      ],
      "name": "buyTicket",
      "outputs": [],
      "stateMutability": "payable",
      "type": "function",
      "payable": true
    },
    {
      "inputs": [],
      "name": "getBalance",
      "outputs": [
        {
          "internalType": "uint256",
          "name": "",
          "type": "uint256"
        }
      ],
      "stateMutability": "view",
      "type": "function",
      "constant": true
    },
    {
      "inputs": [],
      "name": "getTicketPrice",
      "outputs": [
        {
          "internalType": "uint256",
          "name": "",
          "type": "uint256"
        }
      ],
      "stateMutability": "view",
      "type": "function",
      "constant": true
    }
  ],
  "bytecode": "0x608060405266038d7ea4c68000600155600560025534801561002057600080fd5b5061003d61003261004260201b60201c565b61004a60201b60201c565b61010e565b600033905090565b60008060009054906101000a900473ffffffffffffffffffffffffffffffffffffffff169050816000806101000a81548173ffffffffffffffffffffffffffffffffffffffff021916908373ffffffffffffffffffffffffffffffffffffffff1602179055508173ffffffffffffffffffffffffffffffffffffffff168173ffffffffffffffffffffffffffffffffffffffff167f8be0079c531659141344cd1fd0a4f28419497f9722a3daafe3b4186f6b6457e060405160405180910390a35050565b61095f8061011d6000396000f3fe60806040526004361061008a5760003560e01c8063715018a611610059578063715018a61461014457806387bb7ae01461015b5780638da5cb5b14610186578063a3f67d6d146101b1578063f2fde38b146101dc57610091565b806312065fe0146100935780631209b1f6146100be5780634c2eae44146100e957806367dd74ca1461012857610091565b3661009157005b005b34801561009f57600080fd5b506100a8610205565b6040516100b591906105dd565b60405180910390f35b3480156100ca57600080fd5b506100d361020d565b6040516100e091906105dd565b60405180910390f35b3480156100f557600080fd5b50610110600480360381019061010b9190610629565b610213565b60405161011f93929190610697565b60405180910390f35b610142600480360381019061013d9190610629565b61025d565b005b34801561015057600080fd5b5061015961032c565b005b34801561016757600080fd5b506101706103b4565b60405161017d91906105dd565b60405180910390f35b34801561019257600080fd5b5061019b6103d1565b6040516101a891906106ce565b60405180910390f35b3480156101bd57600080fd5b506101c66103fa565b6040516101d391906105dd565b60405180910390f35b3480156101e857600080fd5b5061020360048036038101906101fe9190610715565b610400565b005b600047905090565b60015481565b60036020528060005260406000206000915090508060000154908060010160009054906101000a900473ffffffffffffffffffffffffffffffffffffffff16908060020154905083565b600154341461026b57600080fd5b6004600081548092919061027e90610771565b9190505550604051806060016040528060045481526020013373ffffffffffffffffffffffffffffffffffffffff168152602001828152506003600060045481526020019081526020016000206000820151816000015560208201518160010160006101000a81548173ffffffffffffffffffffffffffffffffffffffff021916908373ffffffffffffffffffffffffffffffffffffffff1602179055506040820151816002015590505050565b6103346104f8565b73ffffffffffffffffffffffffffffffffffffffff166103526103d1565b73ffffffffffffffffffffffffffffffffffffffff16146103a8576040517f08c379a000000000000000000000000000000000000000000000000000000000815260040161039f90610817565b60405180910390fd5b6103b26000610500565b565b6000670de0b6b3a76400006001546103cc9190610866565b905090565b60008060009054906101000a900473ffffffffffffffffffffffffffffffffffffffff16905090565b60045481565b6104086104f8565b73ffffffffffffffffffffffffffffffffffffffff166104266103d1565b73ffffffffffffffffffffffffffffffffffffffff161461047c576040517f08c379a000000000000000000000000000000000000000000000000000000000815260040161047390610817565b60405180910390fd5b600073ffffffffffffffffffffffffffffffffffffffff168173ffffffffffffffffffffffffffffffffffffffff1614156104ec576040517f08c379a00000000000000000000000000000000000000000000000000000000081526004016104e390610909565b60405180910390fd5b6104f581610500565b50565b600033905090565b60008060009054906101000a900473ffffffffffffffffffffffffffffffffffffffff169050816000806101000a81548173ffffffffffffffffffffffffffffffffffffffff021916908373ffffffffffffffffffffffffffffffffffffffff1602179055508173ffffffffffffffffffffffffffffffffffffffff168173ffffffffffffffffffffffffffffffffffffffff167f8be0079c531659141344cd1fd0a4f28419497f9722a3daafe3b4186f6b6457e060405160405180910390a35050565b6000819050919050565b6105d7816105c4565b82525050565b60006020820190506105f260008301846105ce565b92915050565b600080fd5b610606816105c4565b811461061157600080fd5b50565b600081359050610623816105fd565b92915050565b60006020828403121561063f5761063e6105f8565b5b600061064d84828501610614565b91505092915050565b600073ffffffffffffffffffffffffffffffffffffffff82169050919050565b600061068182610656565b9050919050565b61069181610676565b82525050565b60006060820190506106ac60008301866105ce565b6106b96020830185610688565b6106c660408301846105ce565b949350505050565b60006020820190506106e36000830184610688565b92915050565b6106f281610676565b81146106fd57600080fd5b50565b60008135905061070f816106e9565b92915050565b60006020828403121561072b5761072a6105f8565b5b600061073984828501610700565b91505092915050565b7f4e487b7100000000000000000000000000000000000000000000000000000000600052601160045260246000fd5b600061077c826105c4565b91507fffffffffffffffffffffffffffffffffffffffffffffffffffffffffffffffff8214156107af576107ae610742565b5b600182019050919050565b600082825260208201905092915050565b7f4f776e61626c653a2063616c6c6572206973206e6f7420746865206f776e6572600082015250565b60006108016020836107ba565b915061080c826107cb565b602082019050919050565b60006020820190508181036000830152610830816107f4565b9050919050565b7f4e487b7100000000000000000000000000000000000000000000000000000000600052601260045260246000fd5b6000610871826105c4565b915061087c836105c4565b92508261088c5761088b610837565b5b828204905092915050565b7f4f776e61626c653a206e6577206f776e657220697320746865207a65726f206160008201527f6464726573730000000000000000000000000000000000000000000000000000602082015250565b60006108f36026836107ba565b91506108fe82610897565b604082019050919050565b60006020820190508181036000830152610922816108e6565b905091905056fea26469706673582212203a9b3d92f99b445b0c3d5fb8b4d8880636a3258ae2e402cfb89ebcc3f128c61f64736f6c63430008090033",
  "immutableReferences": {},
  "source": "// SPDX-License-Identifier: MIT\r\npragma solidity >=0.4.22;\r\n\r\nimport \"../contracts/Ownable.sol\";\r\n\r\ncontract BaseLottery is Ownable{\r\n    // price for 1 ticket\r\n    uint public ticketPrice = 0.001 ether;\r\n    // percent of ticket price the owner will receive\r\n    uint ticketFee = 5;\r\n\r\n    struct Player{\r\n        uint id;\r\n        address wallet;\r\n        uint ticket;\r\n    }\r\n    //store all current players\r\n    mapping (uint => Player) public playersMap;\r\n    uint public playersCount;\r\n    \r\n\r\n    \r\n\r\n    function buyTicket(uint _ticket) external payable{\r\n        require(msg.value == ticketPrice);\r\n        playersCount++;\r\n        playersMap[playersCount] = Player(playersCount, msg.sender, _ticket);\r\n    }\r\n\r\n    \r\n    function getBalance() public view returns (uint256) {\r\n        return address(this).balance;\r\n    }\r\n\r\n    function getTicketPrice() public view returns(uint256){\r\n        return ticketPrice/1 ether;\r\n    }\r\n\r\n    fallback() external payable {}\r\n    receive() external payable {}\r\n}",
  "sourcePath": "C:\\Users\\ndtr2\\Documents\\GitHub\\Lottery\\contracts\\BaseLottery.sol",
  "compiler": {
    "name": "solc",
    "version": "0.8.9+commit.e5eed63a.Emscripten.clang"
  },
  "schemaVersion": "3.4.3",
  "updatedAt": "2021-10-15T10:29:31.820Z",
  "networkType": "ethereum",
  "devdoc": {
    "kind": "dev",
    "methods": {
      "owner()": {
        "details": "Returns the address of the current owner."
      },
      "renounceOwnership()": {
        "details": "Leaves the contract without owner. It will not be possible to call `onlyOwner` functions anymore. Can only be called by the current owner. NOTE: Renouncing ownership will leave the contract without an owner, thereby removing any functionality that is only available to the owner."
      },
      "transferOwnership(address)": {
        "details": "Transfers ownership of the contract to a new account (`newOwner`). Can only be called by the current owner."
      }
    },
    "version": 1
  },
  "userdoc": {
    "kind": "user",
    "methods": {},
    "version": 1
  }
}