{
  "contractName": "LotteryResult",
  "abi": [
    {
      "anonymous": false,
      "inputs": [
        {
          "indexed": true,
          "internalType": "address",
          "name": "previousOwner",
          "type": "address"
        },
        {
          "indexed": true,
          "internalType": "address",
          "name": "newOwner",
          "type": "address"
        }
      ],
      "name": "OwnershipTransferred",
      "type": "event"
    },
    {
      "stateMutability": "payable",
      "type": "fallback",
      "payable": true
    },
    {
      "inputs": [
        {
          "internalType": "address",
          "name": "",
          "type": "address"
        }
      ],
      "name": "balances",
      "outputs": [
        {
          "internalType": "uint256",
          "name": "",
          "type": "uint256"
        }
      ],
      "stateMutability": "view",
      "type": "function",
      "constant": true
    },
    {
      "inputs": [
        {
          "internalType": "uint32",
          "name": "_ticket",
          "type": "uint32"
        }
      ],
      "name": "buyTicket",
      "outputs": [],
      "stateMutability": "payable",
      "type": "function",
      "payable": true
    },
    {
      "inputs": [],
      "name": "getBalance",
      "outputs": [
        {
          "internalType": "uint256",
          "name": "",
          "type": "uint256"
        }
      ],
      "stateMutability": "view",
      "type": "function",
      "constant": true
    },
    {
      "inputs": [],
      "name": "lastResult",
      "outputs": [
        {
          "internalType": "uint32",
          "name": "",
          "type": "uint32"
        }
      ],
      "stateMutability": "view",
      "type": "function",
      "constant": true
    },
    {
      "inputs": [],
      "name": "owner",
      "outputs": [
        {
          "internalType": "address",
          "name": "",
          "type": "address"
        }
      ],
      "stateMutability": "view",
      "type": "function",
      "constant": true
    },
    {
      "inputs": [],
      "name": "playersCount",
      "outputs": [
        {
          "internalType": "uint32",
          "name": "",
          "type": "uint32"
        }
      ],
      "stateMutability": "view",
      "type": "function",
      "constant": true
    },
    {
      "inputs": [
        {
          "internalType": "uint32",
          "name": "",
          "type": "uint32"
        }
      ],
      "name": "playersMap",
      "outputs": [
        {
          "internalType": "uint32",
          "name": "ticket",
          "type": "uint32"
        },
        {
          "internalType": "address",
          "name": "wallet",
          "type": "address"
        }
      ],
      "stateMutability": "view",
      "type": "function",
      "constant": true
    },
    {
      "inputs": [],
      "name": "renounceOwnership",
      "outputs": [],
      "stateMutability": "nonpayable",
      "type": "function"
    },
    {
      "inputs": [],
      "name": "ticketPrice",
      "outputs": [
        {
          "internalType": "uint256",
          "name": "",
          "type": "uint256"
        }
      ],
      "stateMutability": "view",
      "type": "function",
      "constant": true
    },
    {
      "inputs": [],
      "name": "todaysPrize",
      "outputs": [
        {
          "internalType": "uint256",
          "name": "",
          "type": "uint256"
        }
      ],
      "stateMutability": "view",
      "type": "function",
      "constant": true
    },
    {
      "inputs": [
        {
          "internalType": "address",
          "name": "newOwner",
          "type": "address"
        }
      ],
      "name": "transferOwnership",
      "outputs": [],
      "stateMutability": "nonpayable",
      "type": "function"
    },
    {
      "inputs": [],
      "name": "winnersCount",
      "outputs": [
        {
          "internalType": "uint32",
          "name": "",
          "type": "uint32"
        }
      ],
      "stateMutability": "view",
      "type": "function",
      "constant": true
    },
    {
      "inputs": [
        {
          "internalType": "uint32",
          "name": "",
          "type": "uint32"
        }
      ],
      "name": "winnersMap",
      "outputs": [
        {
          "internalType": "uint32",
          "name": "ticket",
          "type": "uint32"
        },
        {
          "internalType": "address",
          "name": "wallet",
          "type": "address"
        }
      ],
      "stateMutability": "view",
      "type": "function",
      "constant": true
    },
    {
      "stateMutability": "payable",
      "type": "receive",
      "payable": true
    },
    {
      "inputs": [
        {
          "internalType": "uint32",
          "name": "_result",
          "type": "uint32"
        }
      ],
      "name": "setResult",
      "outputs": [],
      "stateMutability": "nonpayable",
      "type": "function"
    },
    {
      "inputs": [
        {
          "internalType": "uint256",
          "name": "amount",
          "type": "uint256"
        }
      ],
      "name": "withdraw",
      "outputs": [
        {
          "internalType": "bool",
          "name": "",
          "type": "bool"
        }
      ],
      "stateMutability": "nonpayable",
      "type": "function"
    }
  ],
  "bytecode": "0x608060405260008060146101000a81548163ffffffff021916908363ffffffff16021790555066038d7ea4c68000600155600060025560006004806101000a81548163ffffffff021916908363ffffffff16021790555034801561006257600080fd5b5061007f61007461008460201b60201c565b61008c60201b60201c565b610150565b600033905090565b60008060009054906101000a900473ffffffffffffffffffffffffffffffffffffffff169050816000806101000a81548173ffffffffffffffffffffffffffffffffffffffff021916908373ffffffffffffffffffffffffffffffffffffffff1602179055508173ffffffffffffffffffffffffffffffffffffffff168173ffffffffffffffffffffffffffffffffffffffff167f8be0079c531659141344cd1fd0a4f28419497f9722a3daafe3b4186f6b6457e060405160405180910390a35050565b6112818061015f6000396000f3fe6080604052600436106100ec5760003560e01c8063497138111161008a5780638da5cb5b116100595780638da5cb5b146102f3578063a3f67d6d1461031e578063abcc11d814610349578063f2fde38b14610374576100f3565b80634971381114610248578063715018a614610273578063777f58981461028a57806382b0cd0c146102b5576100f3565b806321e8ec2d116100c657806321e8ec2d1461017457806327e235e3146101b25780632e1a7d4d146101ef578063354770701461022c576100f3565b806312065fe0146100f55780631209b1f61461012057806319bd60861461014b576100f3565b366100f357005b005b34801561010157600080fd5b5061010a61039d565b6040516101179190610d90565b60405180910390f35b34801561012c57600080fd5b506101356103a5565b6040516101429190610d90565b60405180910390f35b34801561015757600080fd5b50610172600480360381019061016d9190610dec565b6103ab565b005b34801561018057600080fd5b5061019b60048036038101906101969190610dec565b610485565b6040516101a9929190610e69565b60405180910390f35b3480156101be57600080fd5b506101d960048036038101906101d49190610ebe565b6104d9565b6040516101e69190610d90565b60405180910390f35b3480156101fb57600080fd5b5061021660048036038101906102119190610f17565b6104f1565b6040516102239190610f5f565b60405180910390f35b61024660048036038101906102419190610dec565b6105b4565b005b34801561025457600080fd5b5061025d6106f3565b60405161026a9190610f7a565b60405180910390f35b34801561027f57600080fd5b50610288610707565b005b34801561029657600080fd5b5061029f61078f565b6040516102ac9190610d90565b60405180910390f35b3480156102c157600080fd5b506102dc60048036038101906102d79190610dec565b610795565b6040516102ea929190610e69565b60405180910390f35b3480156102ff57600080fd5b506103086107e9565b6040516103159190610f95565b60405180910390f35b34801561032a57600080fd5b50610333610812565b6040516103409190610f7a565b60405180910390f35b34801561035557600080fd5b5061035e610828565b60405161036b9190610f7a565b60405180910390f35b34801561038057600080fd5b5061039b60048036038101906103969190610ebe565b61083e565b005b600047905090565b60015481565b6103b3610936565b73ffffffffffffffffffffffffffffffffffffffff166103d16107e9565b73ffffffffffffffffffffffffffffffffffffffff1614610427576040517f08c379a000000000000000000000000000000000000000000000000000000000815260040161041e9061100d565b60405180910390fd5b80600460006101000a81548163ffffffff021916908363ffffffff1602179055506104518161093e565b610459610b18565b60008060146101000a81548163ffffffff021916908363ffffffff160217905550600060028190555050565b60036020528060005260406000206000915090508060000160009054906101000a900463ffffffff16908060000160049054906101000a900473ffffffffffffffffffffffffffffffffffffffff16905082565b60066020528060005260406000206000915090505481565b600081600660003373ffffffffffffffffffffffffffffffffffffffff1673ffffffffffffffffffffffffffffffffffffffff16815260200190815260200160002054101561053f57600080fd5b60003373ffffffffffffffffffffffffffffffffffffffff16836040516105659061105e565b60006040518083038185875af1925050503d80600081146105a2576040519150601f19603f3d011682016040523d82523d6000602084013e6105a7565b606091505b5050905080915050919050565b60015434146105c257600080fd5b6000601481819054906101000a900463ffffffff16809291906105e4906110a2565b91906101000a81548163ffffffff021916908363ffffffff1602179055505060405180604001604052808263ffffffff1681526020013373ffffffffffffffffffffffffffffffffffffffff16815250600360008060149054906101000a900463ffffffff1663ffffffff1663ffffffff16815260200190815260200160002060008201518160000160006101000a81548163ffffffff021916908363ffffffff16021790555060208201518160000160046101000a81548173ffffffffffffffffffffffffffffffffffffffff021916908373ffffffffffffffffffffffffffffffffffffffff160217905550905050600154600260008282546106e991906110cf565b9250508190555050565b60048054906101000a900463ffffffff1681565b61070f610936565b73ffffffffffffffffffffffffffffffffffffffff1661072d6107e9565b73ffffffffffffffffffffffffffffffffffffffff1614610783576040517f08c379a000000000000000000000000000000000000000000000000000000000815260040161077a9061100d565b60405180910390fd5b61078d6000610cb3565b565b60025481565b60056020528060005260406000206000915090508060000160009054906101000a900463ffffffff16908060000160049054906101000a900473ffffffffffffffffffffffffffffffffffffffff16905082565b60008060009054906101000a900473ffffffffffffffffffffffffffffffffffffffff16905090565b600060149054906101000a900463ffffffff1681565b600460009054906101000a900463ffffffff1681565b610846610936565b73ffffffffffffffffffffffffffffffffffffffff166108646107e9565b73ffffffffffffffffffffffffffffffffffffffff16146108ba576040517f08c379a00000000000000000000000000000000000000000000000000000000081526004016108b19061100d565b60405180910390fd5b600073ffffffffffffffffffffffffffffffffffffffff168173ffffffffffffffffffffffffffffffffffffffff16141561092a576040517f08c379a000000000000000000000000000000000000000000000000000000000815260040161092190611197565b60405180910390fd5b61093381610cb3565b50565b600033905090565b60006004806101000a81548163ffffffff021916908363ffffffff1602179055506000600190505b600060149054906101000a900463ffffffff1663ffffffff168163ffffffff1611610b14578163ffffffff16600360008363ffffffff1663ffffffff16815260200190815260200160002060000160009054906101000a900463ffffffff1663ffffffff161415610b015760048081819054906101000a900463ffffffff16809291906109f2906110a2565b91906101000a81548163ffffffff021916908363ffffffff16021790555050600360008263ffffffff1663ffffffff1681526020019081526020016000206005600060048054906101000a900463ffffffff1663ffffffff1663ffffffff1681526020019081526020016000206000820160009054906101000a900463ffffffff168160000160006101000a81548163ffffffff021916908363ffffffff1602179055506000820160049054906101000a900473ffffffffffffffffffffffffffffffffffffffff168160000160046101000a81548173ffffffffffffffffffffffffffffffffffffffff021916908373ffffffffffffffffffffffffffffffffffffffff1602179055509050505b8080610b0c906110a2565b915050610966565b5050565b6000610b226107e9565b90506014600254610b3391906111e6565b600660008373ffffffffffffffffffffffffffffffffffffffff1673ffffffffffffffffffffffffffffffffffffffff1681526020019081526020016000206000828254610b8191906110cf565b92505081905550600060048054906101000a900463ffffffff1663ffffffff166014600254610bb091906111e6565b600254610bbd9190611217565b610bc791906111e6565b90506000600190505b60048054906101000a900463ffffffff1663ffffffff168163ffffffff1611610cae5781600660006005600060048054906101000a900463ffffffff1663ffffffff1663ffffffff16815260200190815260200160002060000160049054906101000a900473ffffffffffffffffffffffffffffffffffffffff1673ffffffffffffffffffffffffffffffffffffffff1673ffffffffffffffffffffffffffffffffffffffff1681526020019081526020016000206000828254610c9491906110cf565b925050819055508080610ca6906110a2565b915050610bd0565b505050565b60008060009054906101000a900473ffffffffffffffffffffffffffffffffffffffff169050816000806101000a81548173ffffffffffffffffffffffffffffffffffffffff021916908373ffffffffffffffffffffffffffffffffffffffff1602179055508173ffffffffffffffffffffffffffffffffffffffff168173ffffffffffffffffffffffffffffffffffffffff167f8be0079c531659141344cd1fd0a4f28419497f9722a3daafe3b4186f6b6457e060405160405180910390a35050565b6000819050919050565b610d8a81610d77565b82525050565b6000602082019050610da56000830184610d81565b92915050565b600080fd5b600063ffffffff82169050919050565b610dc981610db0565b8114610dd457600080fd5b50565b600081359050610de681610dc0565b92915050565b600060208284031215610e0257610e01610dab565b5b6000610e1084828501610dd7565b91505092915050565b610e2281610db0565b82525050565b600073ffffffffffffffffffffffffffffffffffffffff82169050919050565b6000610e5382610e28565b9050919050565b610e6381610e48565b82525050565b6000604082019050610e7e6000830185610e19565b610e8b6020830184610e5a565b9392505050565b610e9b81610e48565b8114610ea657600080fd5b50565b600081359050610eb881610e92565b92915050565b600060208284031215610ed457610ed3610dab565b5b6000610ee284828501610ea9565b91505092915050565b610ef481610d77565b8114610eff57600080fd5b50565b600081359050610f1181610eeb565b92915050565b600060208284031215610f2d57610f2c610dab565b5b6000610f3b84828501610f02565b91505092915050565b60008115159050919050565b610f5981610f44565b82525050565b6000602082019050610f746000830184610f50565b92915050565b6000602082019050610f8f6000830184610e19565b92915050565b6000602082019050610faa6000830184610e5a565b92915050565b600082825260208201905092915050565b7f4f776e61626c653a2063616c6c6572206973206e6f7420746865206f776e6572600082015250565b6000610ff7602083610fb0565b915061100282610fc1565b602082019050919050565b6000602082019050818103600083015261102681610fea565b9050919050565b600081905092915050565b50565b600061104860008361102d565b915061105382611038565b600082019050919050565b60006110698261103b565b9150819050919050565b7f4e487b7100000000000000000000000000000000000000000000000000000000600052601160045260246000fd5b60006110ad82610db0565b915063ffffffff8214156110c4576110c3611073565b5b600182019050919050565b60006110da82610d77565b91506110e583610d77565b9250827fffffffffffffffffffffffffffffffffffffffffffffffffffffffffffffffff0382111561111a57611119611073565b5b828201905092915050565b7f4f776e61626c653a206e6577206f776e657220697320746865207a65726f206160008201527f6464726573730000000000000000000000000000000000000000000000000000602082015250565b6000611181602683610fb0565b915061118c82611125565b604082019050919050565b600060208201905081810360008301526111b081611174565b9050919050565b7f4e487b7100000000000000000000000000000000000000000000000000000000600052601260045260246000fd5b60006111f182610d77565b91506111fc83610d77565b92508261120c5761120b6111b7565b5b828204905092915050565b600061122282610d77565b915061122d83610d77565b9250828210156112405761123f611073565b5b82820390509291505056fea2646970667358221220bb0ddcb2df3aa48a76b6ee4d5ede364f0598d7337338139dd8f61d3f13dde00a64736f6c63430008090033",
  "immutableReferences": {},
  "source": "// SPDX-License-Identifier: MIT\r\npragma solidity >=0.4.22;\r\n\r\nimport \"../contracts/BaseLottery.sol\";\r\n\r\ncontract LotteryResult is BaseLottery{\r\n    uint32 public lastResult;\r\n    uint32 public winnersCount = 0;\r\n    //save all last winners\r\n    mapping (uint32 => Player) public winnersMap;\r\n    mapping (address => uint) public balances;\r\n    //set the ticket result by the contract owner\r\n    function setResult(uint32 _result) external onlyOwner{\r\n        lastResult = _result;\r\n        processPrize(_result);\r\n        addPrizeToWallet();\r\n        playersCount = 0;\r\n        todaysPrize = 0;\r\n    }\r\n\r\n    //find the winners\r\n    function processPrize(uint32 _result) private {\r\n        winnersCount = 0;\r\n        for(uint32 i = 1; i <= playersCount; i++){\r\n            if(playersMap[i].ticket == _result){\r\n                winnersCount ++;\r\n                winnersMap[winnersCount] = playersMap[i];\r\n            }\r\n        }\r\n    }\r\n\r\n    //send prize money to the winners\r\n    function addPrizeToWallet() private{\r\n        //send fee to the owner\r\n        address _owner = owner();\r\n        balances[_owner] += todaysPrize/20;\r\n        //send fee to the winners\r\n        uint _prizeValue = (todaysPrize-todaysPrize/20)/winnersCount;\r\n        for(uint32 i =1; i <= winnersCount; i++){\r\n            balances[winnersMap[winnersCount].wallet]+= _prizeValue;\r\n        }\r\n\r\n    }\r\n\r\n    function withdraw(uint amount) public returns(bool){\r\n        require(balances[msg.sender] >= amount);\r\n        (bool sent,) = payable(msg.sender).call{value: amount}(\"\");\r\n        return sent;\r\n    }\r\n\r\n}",
  "sourcePath": "C:\\Users\\Admin\\Documents\\Blockchain\\Lottery\\contracts\\LotteryResult.sol",
  "compiler": {
    "name": "solc",
    "version": "0.8.9+commit.e5eed63a.Emscripten.clang"
  },
  "schemaVersion": "3.4.3",
  "updatedAt": "2021-10-21T15:54:40.961Z",
  "networkType": "ethereum",
  "devdoc": {
    "kind": "dev",
    "methods": {
      "owner()": {
        "details": "Returns the address of the current owner."
      },
      "renounceOwnership()": {
        "details": "Leaves the contract without owner. It will not be possible to call `onlyOwner` functions anymore. Can only be called by the current owner. NOTE: Renouncing ownership will leave the contract without an owner, thereby removing any functionality that is only available to the owner."
      },
      "transferOwnership(address)": {
        "details": "Transfers ownership of the contract to a new account (`newOwner`). Can only be called by the current owner."
      }
    },
    "version": 1
  },
  "userdoc": {
    "kind": "user",
    "methods": {},
    "version": 1
  }
}