{
  "contractName": "LotteryResult",
  "abi": [
    {
      "anonymous": false,
      "inputs": [
        {
          "indexed": true,
          "internalType": "address",
          "name": "previousOwner",
          "type": "address"
        },
        {
          "indexed": true,
          "internalType": "address",
          "name": "newOwner",
          "type": "address"
        }
      ],
      "name": "OwnershipTransferred",
      "type": "event"
    },
    {
      "anonymous": false,
      "inputs": [
        {
          "indexed": false,
          "internalType": "uint256",
          "name": "_balance",
          "type": "uint256"
        },
        {
          "indexed": false,
          "internalType": "address",
          "name": "_wallet",
          "type": "address"
        }
      ],
      "name": "onBalanceUpdate",
      "type": "event"
    },
    {
      "stateMutability": "payable",
      "type": "fallback",
      "payable": true
    },
    {
      "inputs": [
        {
          "internalType": "address",
          "name": "",
          "type": "address"
        }
      ],
      "name": "balances",
      "outputs": [
        {
          "internalType": "uint256",
          "name": "",
          "type": "uint256"
        }
      ],
      "stateMutability": "view",
      "type": "function",
      "constant": true
    },
    {
      "inputs": [
        {
          "internalType": "uint32",
          "name": "_ticket",
          "type": "uint32"
        }
      ],
      "name": "buyTicket",
      "outputs": [],
      "stateMutability": "payable",
      "type": "function",
      "payable": true
    },
    {
      "inputs": [],
      "name": "getBalance",
      "outputs": [
        {
          "internalType": "uint256",
          "name": "",
          "type": "uint256"
        }
      ],
      "stateMutability": "view",
      "type": "function",
      "constant": true
    },
    {
      "inputs": [],
      "name": "lastResult",
      "outputs": [
        {
          "internalType": "uint32",
          "name": "",
          "type": "uint32"
        }
      ],
      "stateMutability": "view",
      "type": "function",
      "constant": true
    },
    {
      "inputs": [],
      "name": "owner",
      "outputs": [
        {
          "internalType": "address",
          "name": "",
          "type": "address"
        }
      ],
      "stateMutability": "view",
      "type": "function",
      "constant": true
    },
    {
      "inputs": [],
      "name": "playersCount",
      "outputs": [
        {
          "internalType": "uint32",
          "name": "",
          "type": "uint32"
        }
      ],
      "stateMutability": "view",
      "type": "function",
      "constant": true
    },
    {
      "inputs": [
        {
          "internalType": "uint32",
          "name": "",
          "type": "uint32"
        }
      ],
      "name": "playersMap",
      "outputs": [
        {
          "internalType": "uint32",
          "name": "ticket",
          "type": "uint32"
        },
        {
          "internalType": "address",
          "name": "wallet",
          "type": "address"
        }
      ],
      "stateMutability": "view",
      "type": "function",
      "constant": true
    },
    {
      "inputs": [],
      "name": "renounceOwnership",
      "outputs": [],
      "stateMutability": "nonpayable",
      "type": "function"
    },
    {
      "inputs": [],
      "name": "ticketPrice",
      "outputs": [
        {
          "internalType": "uint256",
          "name": "",
          "type": "uint256"
        }
      ],
      "stateMutability": "view",
      "type": "function",
      "constant": true
    },
    {
      "inputs": [],
      "name": "todaysPrize",
      "outputs": [
        {
          "internalType": "uint256",
          "name": "",
          "type": "uint256"
        }
      ],
      "stateMutability": "view",
      "type": "function",
      "constant": true
    },
    {
      "inputs": [
        {
          "internalType": "address",
          "name": "newOwner",
          "type": "address"
        }
      ],
      "name": "transferOwnership",
      "outputs": [],
      "stateMutability": "nonpayable",
      "type": "function"
    },
    {
      "inputs": [],
      "name": "winnersCount",
      "outputs": [
        {
          "internalType": "uint32",
          "name": "",
          "type": "uint32"
        }
      ],
      "stateMutability": "view",
      "type": "function",
      "constant": true
    },
    {
      "inputs": [
        {
          "internalType": "uint32",
          "name": "",
          "type": "uint32"
        }
      ],
      "name": "winnersMap",
      "outputs": [
        {
          "internalType": "uint32",
          "name": "ticket",
          "type": "uint32"
        },
        {
          "internalType": "address",
          "name": "wallet",
          "type": "address"
        }
      ],
      "stateMutability": "view",
      "type": "function",
      "constant": true
    },
    {
      "stateMutability": "payable",
      "type": "receive",
      "payable": true
    },
    {
      "inputs": [
        {
          "internalType": "uint32",
          "name": "_result",
          "type": "uint32"
        }
      ],
      "name": "setResult",
      "outputs": [],
      "stateMutability": "nonpayable",
      "type": "function"
    },
    {
      "inputs": [
        {
          "internalType": "uint256",
          "name": "_amount",
          "type": "uint256"
        }
      ],
      "name": "withdraw",
      "outputs": [
        {
          "internalType": "bool",
          "name": "",
          "type": "bool"
        }
      ],
      "stateMutability": "nonpayable",
      "type": "function"
    }
  ],
  "bytecode": "0x608060405260008060146101000a81548163ffffffff021916908363ffffffff16021790555066038d7ea4c68000600155600060025560006004806101000a81548163ffffffff021916908363ffffffff16021790555034801561006257600080fd5b5061007f61007461008460201b60201c565b61008c60201b60201c565b610150565b600033905090565b60008060009054906101000a900473ffffffffffffffffffffffffffffffffffffffff169050816000806101000a81548173ffffffffffffffffffffffffffffffffffffffff021916908373ffffffffffffffffffffffffffffffffffffffff1602179055508173ffffffffffffffffffffffffffffffffffffffff168173ffffffffffffffffffffffffffffffffffffffff167f8be0079c531659141344cd1fd0a4f28419497f9722a3daafe3b4186f6b6457e060405160405180910390a35050565b6113b98061015f6000396000f3fe6080604052600436106100ec5760003560e01c8063497138111161008a5780638da5cb5b116100595780638da5cb5b146102f3578063a3f67d6d1461031e578063abcc11d814610349578063f2fde38b14610374576100f3565b80634971381114610248578063715018a614610273578063777f58981461028a57806382b0cd0c146102b5576100f3565b806321e8ec2d116100c657806321e8ec2d1461017457806327e235e3146101b25780632e1a7d4d146101ef578063354770701461022c576100f3565b806312065fe0146100f55780631209b1f61461012057806319bd60861461014b576100f3565b366100f357005b005b34801561010157600080fd5b5061010a61039d565b6040516101179190610e9f565b60405180910390f35b34801561012c57600080fd5b506101356103a5565b6040516101429190610e9f565b60405180910390f35b34801561015757600080fd5b50610172600480360381019061016d9190610efb565b6103ab565b005b34801561018057600080fd5b5061019b60048036038101906101969190610efb565b610485565b6040516101a9929190610f78565b60405180910390f35b3480156101be57600080fd5b506101d960048036038101906101d49190610fcd565b6104d9565b6040516101e69190610e9f565b60405180910390f35b3480156101fb57600080fd5b5061021660048036038101906102119190611026565b6104f1565b604051610223919061106e565b60405180910390f35b61024660048036038101906102419190610efb565b610689565b005b34801561025457600080fd5b5061025d6107c8565b60405161026a9190611089565b60405180910390f35b34801561027f57600080fd5b506102886107dc565b005b34801561029657600080fd5b5061029f610864565b6040516102ac9190610e9f565b60405180910390f35b3480156102c157600080fd5b506102dc60048036038101906102d79190610efb565b61086a565b6040516102ea929190610f78565b60405180910390f35b3480156102ff57600080fd5b506103086108be565b60405161031591906110a4565b60405180910390f35b34801561032a57600080fd5b506103336108e7565b6040516103409190611089565b60405180910390f35b34801561035557600080fd5b5061035e6108fd565b60405161036b9190611089565b60405180910390f35b34801561038057600080fd5b5061039b60048036038101906103969190610fcd565b610913565b005b600047905090565b60015481565b6103b3610a0b565b73ffffffffffffffffffffffffffffffffffffffff166103d16108be565b73ffffffffffffffffffffffffffffffffffffffff1614610427576040517f08c379a000000000000000000000000000000000000000000000000000000000815260040161041e9061111c565b60405180910390fd5b80600460006101000a81548163ffffffff021916908363ffffffff16021790555061045181610a13565b610459610bed565b60008060146101000a81548163ffffffff021916908363ffffffff160217905550600060028190555050565b60036020528060005260406000206000915090508060000160009054906101000a900463ffffffff16908060000160049054906101000a900473ffffffffffffffffffffffffffffffffffffffff16905082565b60066020528060005260406000206000915090505481565b600081600660003373ffffffffffffffffffffffffffffffffffffffff1673ffffffffffffffffffffffffffffffffffffffff16815260200190815260200160002054101561053f57600080fd5b60003373ffffffffffffffffffffffffffffffffffffffff16836040516105659061116d565b60006040518083038185875af1925050503d80600081146105a2576040519150601f19603f3d011682016040523d82523d6000602084013e6105a7565b606091505b5050905080156106805782600660003373ffffffffffffffffffffffffffffffffffffffff1673ffffffffffffffffffffffffffffffffffffffff168152602001908152602001600020600082825461060091906111b1565b925050819055507f36436725ab32a2fa82c15508aaa2fdc891fb591ae3406b703a48547dc9ed71e1600660003373ffffffffffffffffffffffffffffffffffffffff1673ffffffffffffffffffffffffffffffffffffffff16815260200190815260200160002054336040516106779291906111e5565b60405180910390a15b80915050919050565b600154341461069757600080fd5b6000601481819054906101000a900463ffffffff16809291906106b99061120e565b91906101000a81548163ffffffff021916908363ffffffff1602179055505060405180604001604052808263ffffffff1681526020013373ffffffffffffffffffffffffffffffffffffffff16815250600360008060149054906101000a900463ffffffff1663ffffffff1663ffffffff16815260200190815260200160002060008201518160000160006101000a81548163ffffffff021916908363ffffffff16021790555060208201518160000160046101000a81548173ffffffffffffffffffffffffffffffffffffffff021916908373ffffffffffffffffffffffffffffffffffffffff160217905550905050600154600260008282546107be919061123b565b9250508190555050565b60048054906101000a900463ffffffff1681565b6107e4610a0b565b73ffffffffffffffffffffffffffffffffffffffff166108026108be565b73ffffffffffffffffffffffffffffffffffffffff1614610858576040517f08c379a000000000000000000000000000000000000000000000000000000000815260040161084f9061111c565b60405180910390fd5b6108626000610cf0565b565b60025481565b60056020528060005260406000206000915090508060000160009054906101000a900463ffffffff16908060000160049054906101000a900473ffffffffffffffffffffffffffffffffffffffff16905082565b60008060009054906101000a900473ffffffffffffffffffffffffffffffffffffffff16905090565b600060149054906101000a900463ffffffff1681565b600460009054906101000a900463ffffffff1681565b61091b610a0b565b73ffffffffffffffffffffffffffffffffffffffff166109396108be565b73ffffffffffffffffffffffffffffffffffffffff161461098f576040517f08c379a00000000000000000000000000000000000000000000000000000000081526004016109869061111c565b60405180910390fd5b600073ffffffffffffffffffffffffffffffffffffffff168173ffffffffffffffffffffffffffffffffffffffff1614156109ff576040517f08c379a00000000000000000000000000000000000000000000000000000000081526004016109f690611303565b60405180910390fd5b610a0881610cf0565b50565b600033905090565b60006004806101000a81548163ffffffff021916908363ffffffff1602179055506000600190505b600060149054906101000a900463ffffffff1663ffffffff168163ffffffff1611610be9578163ffffffff16600360008363ffffffff1663ffffffff16815260200190815260200160002060000160009054906101000a900463ffffffff1663ffffffff161415610bd65760048081819054906101000a900463ffffffff1680929190610ac79061120e565b91906101000a81548163ffffffff021916908363ffffffff16021790555050600360008263ffffffff1663ffffffff1681526020019081526020016000206005600060048054906101000a900463ffffffff1663ffffffff1663ffffffff1681526020019081526020016000206000820160009054906101000a900463ffffffff168160000160006101000a81548163ffffffff021916908363ffffffff1602179055506000820160049054906101000a900473ffffffffffffffffffffffffffffffffffffffff168160000160046101000a81548173ffffffffffffffffffffffffffffffffffffffff021916908373ffffffffffffffffffffffffffffffffffffffff1602179055509050505b8080610be19061120e565b915050610a3b565b5050565b6000610bf76108be565b9050610c11816014600254610c0c9190611352565b610db4565b600060048054906101000a900463ffffffff1663ffffffff166014600254610c399190611352565b600254610c4691906111b1565b610c509190611352565b90506000600190505b60048054906101000a900463ffffffff1663ffffffff168163ffffffff1611610ceb57610cd86005600060048054906101000a900463ffffffff1663ffffffff1663ffffffff16815260200190815260200160002060000160049054906101000a900473ffffffffffffffffffffffffffffffffffffffff1683610db4565b8080610ce39061120e565b915050610c59565b505050565b60008060009054906101000a900473ffffffffffffffffffffffffffffffffffffffff169050816000806101000a81548173ffffffffffffffffffffffffffffffffffffffff021916908373ffffffffffffffffffffffffffffffffffffffff1602179055508173ffffffffffffffffffffffffffffffffffffffff168173ffffffffffffffffffffffffffffffffffffffff167f8be0079c531659141344cd1fd0a4f28419497f9722a3daafe3b4186f6b6457e060405160405180910390a35050565b80600660008473ffffffffffffffffffffffffffffffffffffffff1673ffffffffffffffffffffffffffffffffffffffff1681526020019081526020016000206000828254610e03919061123b565b925050819055507f36436725ab32a2fa82c15508aaa2fdc891fb591ae3406b703a48547dc9ed71e1600660008473ffffffffffffffffffffffffffffffffffffffff1673ffffffffffffffffffffffffffffffffffffffff1681526020019081526020016000205483604051610e7a9291906111e5565b60405180910390a15050565b6000819050919050565b610e9981610e86565b82525050565b6000602082019050610eb46000830184610e90565b92915050565b600080fd5b600063ffffffff82169050919050565b610ed881610ebf565b8114610ee357600080fd5b50565b600081359050610ef581610ecf565b92915050565b600060208284031215610f1157610f10610eba565b5b6000610f1f84828501610ee6565b91505092915050565b610f3181610ebf565b82525050565b600073ffffffffffffffffffffffffffffffffffffffff82169050919050565b6000610f6282610f37565b9050919050565b610f7281610f57565b82525050565b6000604082019050610f8d6000830185610f28565b610f9a6020830184610f69565b9392505050565b610faa81610f57565b8114610fb557600080fd5b50565b600081359050610fc781610fa1565b92915050565b600060208284031215610fe357610fe2610eba565b5b6000610ff184828501610fb8565b91505092915050565b61100381610e86565b811461100e57600080fd5b50565b60008135905061102081610ffa565b92915050565b60006020828403121561103c5761103b610eba565b5b600061104a84828501611011565b91505092915050565b60008115159050919050565b61106881611053565b82525050565b6000602082019050611083600083018461105f565b92915050565b600060208201905061109e6000830184610f28565b92915050565b60006020820190506110b96000830184610f69565b92915050565b600082825260208201905092915050565b7f4f776e61626c653a2063616c6c6572206973206e6f7420746865206f776e6572600082015250565b60006111066020836110bf565b9150611111826110d0565b602082019050919050565b60006020820190508181036000830152611135816110f9565b9050919050565b600081905092915050565b50565b600061115760008361113c565b915061116282611147565b600082019050919050565b60006111788261114a565b9150819050919050565b7f4e487b7100000000000000000000000000000000000000000000000000000000600052601160045260246000fd5b60006111bc82610e86565b91506111c783610e86565b9250828210156111da576111d9611182565b5b828203905092915050565b60006040820190506111fa6000830185610e90565b6112076020830184610f69565b9392505050565b600061121982610ebf565b915063ffffffff8214156112305761122f611182565b5b600182019050919050565b600061124682610e86565b915061125183610e86565b9250827fffffffffffffffffffffffffffffffffffffffffffffffffffffffffffffffff0382111561128657611285611182565b5b828201905092915050565b7f4f776e61626c653a206e6577206f776e657220697320746865207a65726f206160008201527f6464726573730000000000000000000000000000000000000000000000000000602082015250565b60006112ed6026836110bf565b91506112f882611291565b604082019050919050565b6000602082019050818103600083015261131c816112e0565b9050919050565b7f4e487b7100000000000000000000000000000000000000000000000000000000600052601260045260246000fd5b600061135d82610e86565b915061136883610e86565b92508261137857611377611323565b5b82820490509291505056fea2646970667358221220ea68c8ce917674ad62485dd60af6d3bd1097833bb37c6153acbbf23bb3c2a0e764736f6c63430008090033",
  "immutableReferences": {},
  "source": "// SPDX-License-Identifier: MIT\r\npragma solidity >=0.4.22;\r\n\r\nimport \"../contracts/BaseLottery.sol\";\r\n\r\ncontract LotteryResult is BaseLottery{\r\n\r\n    event onBalanceUpdate(uint _balance, address _wallet);\r\n\r\n    uint32 public lastResult;\r\n    uint32 public winnersCount = 0;\r\n    //save all last winners\r\n    mapping (uint32 => Player) public winnersMap;\r\n    mapping (address => uint) public balances;\r\n    //set the ticket result by the contract owner\r\n    function setResult(uint32 _result) external onlyOwner{\r\n        lastResult = _result;\r\n        processPrize(_result);\r\n        addPrizeToWallet();\r\n        playersCount = 0;\r\n        todaysPrize = 0;\r\n    }\r\n\r\n    //find the winners\r\n    function processPrize(uint32 _result) private {\r\n        winnersCount = 0;\r\n        for(uint32 i = 1; i <= playersCount; i++){\r\n            if(playersMap[i].ticket == _result){\r\n                winnersCount ++;\r\n                winnersMap[winnersCount] = playersMap[i];\r\n            }\r\n        }\r\n    }\r\n\r\n    //send prize money to the winners\r\n    function addPrizeToWallet() private{\r\n        //send fee to the owner\r\n        address _owner = owner();\r\n        addToBalance(_owner, todaysPrize/20);\r\n        //send fee to the winners\r\n        uint _prizeValue = (todaysPrize-todaysPrize/20)/winnersCount;\r\n        for(uint32 i =1; i <= winnersCount; i++){\r\n            addToBalance(winnersMap[winnersCount].wallet, _prizeValue);\r\n        }\r\n    }\r\n\r\n    function addToBalance(address _wallet, uint _amount) private{\r\n        balances[_wallet] += _amount;\r\n        emit onBalanceUpdate(balances[_wallet], _wallet);\r\n    }\r\n\r\n    function withdraw(uint _amount) public returns(bool){\r\n        require(balances[msg.sender] >= _amount);\r\n        (bool sent,) = payable(msg.sender).call{value: _amount}(\"\");\r\n        if(sent){\r\n            balances[msg.sender] -= _amount;\r\n            emit onBalanceUpdate(balances[msg.sender], msg.sender);\r\n        }\r\n        return sent;\r\n    }\r\n\r\n}",
  "sourcePath": "C:\\Users\\Admin\\Documents\\Blockchain\\Lottery\\contracts\\LotteryResult.sol",
  "compiler": {
    "name": "solc",
    "version": "0.8.9+commit.e5eed63a.Emscripten.clang"
  },
  "schemaVersion": "3.4.3",
  "updatedAt": "2021-10-22T15:52:30.087Z",
  "networkType": "ethereum",
  "devdoc": {
    "kind": "dev",
    "methods": {
      "owner()": {
        "details": "Returns the address of the current owner."
      },
      "renounceOwnership()": {
        "details": "Leaves the contract without owner. It will not be possible to call `onlyOwner` functions anymore. Can only be called by the current owner. NOTE: Renouncing ownership will leave the contract without an owner, thereby removing any functionality that is only available to the owner."
      },
      "transferOwnership(address)": {
        "details": "Transfers ownership of the contract to a new account (`newOwner`). Can only be called by the current owner."
      }
    },
    "version": 1
  },
  "userdoc": {
    "kind": "user",
    "methods": {},
    "version": 1
  }
}