{
  "contractName": "LotteryResult",
  "abi": [
    {
      "anonymous": false,
      "inputs": [
        {
          "indexed": true,
          "internalType": "address",
          "name": "previousOwner",
          "type": "address"
        },
        {
          "indexed": true,
          "internalType": "address",
          "name": "newOwner",
          "type": "address"
        }
      ],
      "name": "OwnershipTransferred",
      "type": "event"
    },
    {
      "anonymous": false,
      "inputs": [
        {
          "indexed": false,
          "internalType": "uint256",
          "name": "_balance",
          "type": "uint256"
        },
        {
          "indexed": false,
          "internalType": "address",
          "name": "_wallet",
          "type": "address"
        }
      ],
      "name": "onBalanceUpdate",
      "type": "event"
    },
    {
      "anonymous": false,
      "inputs": [
        {
          "indexed": false,
          "internalType": "uint256",
          "name": "_prize",
          "type": "uint256"
        }
      ],
      "name": "onPrizeChange",
      "type": "event"
    },
    {
      "stateMutability": "payable",
      "type": "fallback",
      "payable": true
    },
    {
      "inputs": [
        {
          "internalType": "address",
          "name": "",
          "type": "address"
        }
      ],
      "name": "balances",
      "outputs": [
        {
          "internalType": "uint256",
          "name": "",
          "type": "uint256"
        }
      ],
      "stateMutability": "view",
      "type": "function",
      "constant": true
    },
    {
      "inputs": [
        {
          "internalType": "uint32",
          "name": "_ticket",
          "type": "uint32"
        }
      ],
      "name": "buyTicket",
      "outputs": [],
      "stateMutability": "payable",
      "type": "function",
      "payable": true
    },
    {
      "inputs": [],
      "name": "getBalance",
      "outputs": [
        {
          "internalType": "uint256",
          "name": "",
          "type": "uint256"
        }
      ],
      "stateMutability": "view",
      "type": "function",
      "constant": true
    },
    {
      "inputs": [],
      "name": "lastResult",
      "outputs": [
        {
          "internalType": "uint32",
          "name": "",
          "type": "uint32"
        }
      ],
      "stateMutability": "view",
      "type": "function",
      "constant": true
    },
    {
      "inputs": [],
      "name": "owner",
      "outputs": [
        {
          "internalType": "address",
          "name": "",
          "type": "address"
        }
      ],
      "stateMutability": "view",
      "type": "function",
      "constant": true
    },
    {
      "inputs": [],
      "name": "playersCount",
      "outputs": [
        {
          "internalType": "uint32",
          "name": "",
          "type": "uint32"
        }
      ],
      "stateMutability": "view",
      "type": "function",
      "constant": true
    },
    {
      "inputs": [
        {
          "internalType": "uint32",
          "name": "",
          "type": "uint32"
        }
      ],
      "name": "playersMap",
      "outputs": [
        {
          "internalType": "uint32",
          "name": "ticket",
          "type": "uint32"
        },
        {
          "internalType": "address",
          "name": "wallet",
          "type": "address"
        }
      ],
      "stateMutability": "view",
      "type": "function",
      "constant": true
    },
    {
      "inputs": [],
      "name": "renounceOwnership",
      "outputs": [],
      "stateMutability": "nonpayable",
      "type": "function"
    },
    {
      "inputs": [],
      "name": "ticketPrice",
      "outputs": [
        {
          "internalType": "uint256",
          "name": "",
          "type": "uint256"
        }
      ],
      "stateMutability": "view",
      "type": "function",
      "constant": true
    },
    {
      "inputs": [],
      "name": "todaysPrize",
      "outputs": [
        {
          "internalType": "uint256",
          "name": "",
          "type": "uint256"
        }
      ],
      "stateMutability": "view",
      "type": "function",
      "constant": true
    },
    {
      "inputs": [
        {
          "internalType": "address",
          "name": "newOwner",
          "type": "address"
        }
      ],
      "name": "transferOwnership",
      "outputs": [],
      "stateMutability": "nonpayable",
      "type": "function"
    },
    {
      "inputs": [],
      "name": "winnersCount",
      "outputs": [
        {
          "internalType": "uint32",
          "name": "",
          "type": "uint32"
        }
      ],
      "stateMutability": "view",
      "type": "function",
      "constant": true
    },
    {
      "inputs": [
        {
          "internalType": "uint32",
          "name": "",
          "type": "uint32"
        }
      ],
      "name": "winnersMap",
      "outputs": [
        {
          "internalType": "uint32",
          "name": "ticket",
          "type": "uint32"
        },
        {
          "internalType": "address",
          "name": "wallet",
          "type": "address"
        }
      ],
      "stateMutability": "view",
      "type": "function",
      "constant": true
    },
    {
      "stateMutability": "payable",
      "type": "receive",
      "payable": true
    },
    {
      "inputs": [
        {
          "internalType": "uint32",
          "name": "_result",
          "type": "uint32"
        }
      ],
      "name": "setResult",
      "outputs": [],
      "stateMutability": "nonpayable",
      "type": "function"
    },
    {
      "inputs": [],
      "name": "getAccountBalance",
      "outputs": [
        {
          "internalType": "uint256",
          "name": "",
          "type": "uint256"
        }
      ],
      "stateMutability": "view",
      "type": "function",
      "constant": true
    },
    {
      "inputs": [
        {
          "internalType": "uint256",
          "name": "_amount",
          "type": "uint256"
        }
      ],
      "name": "withdraw",
      "outputs": [
        {
          "internalType": "bool",
          "name": "",
          "type": "bool"
        }
      ],
      "stateMutability": "nonpayable",
      "type": "function"
    }
  ],
  "bytecode": "0x608060405260008060146101000a81548163ffffffff021916908363ffffffff16021790555066038d7ea4c68000600155600060025560006004806101000a81548163ffffffff021916908363ffffffff16021790555034801561006257600080fd5b5061007f61007461008460201b60201c565b61008c60201b60201c565b610150565b600033905090565b60008060009054906101000a900473ffffffffffffffffffffffffffffffffffffffff169050816000806101000a81548173ffffffffffffffffffffffffffffffffffffffff021916908373ffffffffffffffffffffffffffffffffffffffff1602179055508173ffffffffffffffffffffffffffffffffffffffff168173ffffffffffffffffffffffffffffffffffffffff167f8be0079c531659141344cd1fd0a4f28419497f9722a3daafe3b4186f6b6457e060405160405180910390a35050565b61146f8061015f6000396000f3fe6080604052600436106100f75760003560e01c80636896fabf1161008a5780638da5cb5b116100595780638da5cb5b14610329578063a3f67d6d14610354578063abcc11d81461037f578063f2fde38b146103aa576100fe565b80636896fabf1461027e578063715018a6146102a9578063777f5898146102c057806382b0cd0c146102eb576100fe565b806327e235e3116100c657806327e235e3146101bd5780632e1a7d4d146101fa57806335477070146102375780634971381114610253576100fe565b806312065fe0146101005780631209b1f61461012b57806319bd60861461015657806321e8ec2d1461017f576100fe565b366100fe57005b005b34801561010c57600080fd5b506101156103d3565b6040516101229190610f55565b60405180910390f35b34801561013757600080fd5b506101406103db565b60405161014d9190610f55565b60405180910390f35b34801561016257600080fd5b5061017d60048036038101906101789190610fb1565b6103e1565b005b34801561018b57600080fd5b506101a660048036038101906101a19190610fb1565b6104bb565b6040516101b492919061102e565b60405180910390f35b3480156101c957600080fd5b506101e460048036038101906101df9190611083565b61050f565b6040516101f19190610f55565b60405180910390f35b34801561020657600080fd5b50610221600480360381019061021c91906110dc565b610527565b60405161022e9190611124565b60405180910390f35b610251600480360381019061024c9190610fb1565b6106bf565b005b34801561025f57600080fd5b50610268610837565b604051610275919061113f565b60405180910390f35b34801561028a57600080fd5b5061029361084b565b6040516102a09190610f55565b60405180910390f35b3480156102b557600080fd5b506102be610892565b005b3480156102cc57600080fd5b506102d561091a565b6040516102e29190610f55565b60405180910390f35b3480156102f757600080fd5b50610312600480360381019061030d9190610fb1565b610920565b60405161032092919061102e565b60405180910390f35b34801561033557600080fd5b5061033e610974565b60405161034b919061115a565b60405180910390f35b34801561036057600080fd5b5061036961099d565b604051610376919061113f565b60405180910390f35b34801561038b57600080fd5b506103946109b3565b6040516103a1919061113f565b60405180910390f35b3480156103b657600080fd5b506103d160048036038101906103cc9190611083565b6109c9565b005b600047905090565b60015481565b6103e9610ac1565b73ffffffffffffffffffffffffffffffffffffffff16610407610974565b73ffffffffffffffffffffffffffffffffffffffff161461045d576040517f08c379a0000000000000000000000000000000000000000000000000000000008152600401610454906111d2565b60405180910390fd5b80600460006101000a81548163ffffffff021916908363ffffffff16021790555061048781610ac9565b61048f610ca3565b60008060146101000a81548163ffffffff021916908363ffffffff160217905550600060028190555050565b60036020528060005260406000206000915090508060000160009054906101000a900463ffffffff16908060000160049054906101000a900473ffffffffffffffffffffffffffffffffffffffff16905082565b60066020528060005260406000206000915090505481565b600081600660003373ffffffffffffffffffffffffffffffffffffffff1673ffffffffffffffffffffffffffffffffffffffff16815260200190815260200160002054101561057557600080fd5b60003373ffffffffffffffffffffffffffffffffffffffff168360405161059b90611223565b60006040518083038185875af1925050503d80600081146105d8576040519150601f19603f3d011682016040523d82523d6000602084013e6105dd565b606091505b5050905080156106b65782600660003373ffffffffffffffffffffffffffffffffffffffff1673ffffffffffffffffffffffffffffffffffffffff16815260200190815260200160002060008282546106369190611267565b925050819055507f36436725ab32a2fa82c15508aaa2fdc891fb591ae3406b703a48547dc9ed71e1600660003373ffffffffffffffffffffffffffffffffffffffff1673ffffffffffffffffffffffffffffffffffffffff16815260200190815260200160002054336040516106ad92919061129b565b60405180910390a15b80915050919050565b60015434146106cd57600080fd5b6000601481819054906101000a900463ffffffff16809291906106ef906112c4565b91906101000a81548163ffffffff021916908363ffffffff1602179055505060405180604001604052808263ffffffff1681526020013373ffffffffffffffffffffffffffffffffffffffff16815250600360008060149054906101000a900463ffffffff1663ffffffff1663ffffffff16815260200190815260200160002060008201518160000160006101000a81548163ffffffff021916908363ffffffff16021790555060208201518160000160046101000a81548173ffffffffffffffffffffffffffffffffffffffff021916908373ffffffffffffffffffffffffffffffffffffffff160217905550905050600154600260008282546107f491906112f1565b925050819055507feb00e04371174e6ff52ac9c9813b0e87ba1ce126641772d6287529ab77e50f6b60025460405161082c9190610f55565b60405180910390a150565b60048054906101000a900463ffffffff1681565b6000600660003373ffffffffffffffffffffffffffffffffffffffff1673ffffffffffffffffffffffffffffffffffffffff16815260200190815260200160002054905090565b61089a610ac1565b73ffffffffffffffffffffffffffffffffffffffff166108b8610974565b73ffffffffffffffffffffffffffffffffffffffff161461090e576040517f08c379a0000000000000000000000000000000000000000000000000000000008152600401610905906111d2565b60405180910390fd5b6109186000610da6565b565b60025481565b60056020528060005260406000206000915090508060000160009054906101000a900463ffffffff16908060000160049054906101000a900473ffffffffffffffffffffffffffffffffffffffff16905082565b60008060009054906101000a900473ffffffffffffffffffffffffffffffffffffffff16905090565b600060149054906101000a900463ffffffff1681565b600460009054906101000a900463ffffffff1681565b6109d1610ac1565b73ffffffffffffffffffffffffffffffffffffffff166109ef610974565b73ffffffffffffffffffffffffffffffffffffffff1614610a45576040517f08c379a0000000000000000000000000000000000000000000000000000000008152600401610a3c906111d2565b60405180910390fd5b600073ffffffffffffffffffffffffffffffffffffffff168173ffffffffffffffffffffffffffffffffffffffff161415610ab5576040517f08c379a0000000000000000000000000000000000000000000000000000000008152600401610aac906113b9565b60405180910390fd5b610abe81610da6565b50565b600033905090565b60006004806101000a81548163ffffffff021916908363ffffffff1602179055506000600190505b600060149054906101000a900463ffffffff1663ffffffff168163ffffffff1611610c9f578163ffffffff16600360008363ffffffff1663ffffffff16815260200190815260200160002060000160009054906101000a900463ffffffff1663ffffffff161415610c8c5760048081819054906101000a900463ffffffff1680929190610b7d906112c4565b91906101000a81548163ffffffff021916908363ffffffff16021790555050600360008263ffffffff1663ffffffff1681526020019081526020016000206005600060048054906101000a900463ffffffff1663ffffffff1663ffffffff1681526020019081526020016000206000820160009054906101000a900463ffffffff168160000160006101000a81548163ffffffff021916908363ffffffff1602179055506000820160049054906101000a900473ffffffffffffffffffffffffffffffffffffffff168160000160046101000a81548173ffffffffffffffffffffffffffffffffffffffff021916908373ffffffffffffffffffffffffffffffffffffffff1602179055509050505b8080610c97906112c4565b915050610af1565b5050565b6000610cad610974565b9050610cc7816014600254610cc29190611408565b610e6a565b600060048054906101000a900463ffffffff1663ffffffff166014600254610cef9190611408565b600254610cfc9190611267565b610d069190611408565b90506000600190505b60048054906101000a900463ffffffff1663ffffffff168163ffffffff1611610da157610d8e6005600060048054906101000a900463ffffffff1663ffffffff1663ffffffff16815260200190815260200160002060000160049054906101000a900473ffffffffffffffffffffffffffffffffffffffff1683610e6a565b8080610d99906112c4565b915050610d0f565b505050565b60008060009054906101000a900473ffffffffffffffffffffffffffffffffffffffff169050816000806101000a81548173ffffffffffffffffffffffffffffffffffffffff021916908373ffffffffffffffffffffffffffffffffffffffff1602179055508173ffffffffffffffffffffffffffffffffffffffff168173ffffffffffffffffffffffffffffffffffffffff167f8be0079c531659141344cd1fd0a4f28419497f9722a3daafe3b4186f6b6457e060405160405180910390a35050565b80600660008473ffffffffffffffffffffffffffffffffffffffff1673ffffffffffffffffffffffffffffffffffffffff1681526020019081526020016000206000828254610eb991906112f1565b925050819055507f36436725ab32a2fa82c15508aaa2fdc891fb591ae3406b703a48547dc9ed71e1600660008473ffffffffffffffffffffffffffffffffffffffff1673ffffffffffffffffffffffffffffffffffffffff1681526020019081526020016000205483604051610f3092919061129b565b60405180910390a15050565b6000819050919050565b610f4f81610f3c565b82525050565b6000602082019050610f6a6000830184610f46565b92915050565b600080fd5b600063ffffffff82169050919050565b610f8e81610f75565b8114610f9957600080fd5b50565b600081359050610fab81610f85565b92915050565b600060208284031215610fc757610fc6610f70565b5b6000610fd584828501610f9c565b91505092915050565b610fe781610f75565b82525050565b600073ffffffffffffffffffffffffffffffffffffffff82169050919050565b600061101882610fed565b9050919050565b6110288161100d565b82525050565b60006040820190506110436000830185610fde565b611050602083018461101f565b9392505050565b6110608161100d565b811461106b57600080fd5b50565b60008135905061107d81611057565b92915050565b60006020828403121561109957611098610f70565b5b60006110a78482850161106e565b91505092915050565b6110b981610f3c565b81146110c457600080fd5b50565b6000813590506110d6816110b0565b92915050565b6000602082840312156110f2576110f1610f70565b5b6000611100848285016110c7565b91505092915050565b60008115159050919050565b61111e81611109565b82525050565b60006020820190506111396000830184611115565b92915050565b60006020820190506111546000830184610fde565b92915050565b600060208201905061116f600083018461101f565b92915050565b600082825260208201905092915050565b7f4f776e61626c653a2063616c6c6572206973206e6f7420746865206f776e6572600082015250565b60006111bc602083611175565b91506111c782611186565b602082019050919050565b600060208201905081810360008301526111eb816111af565b9050919050565b600081905092915050565b50565b600061120d6000836111f2565b9150611218826111fd565b600082019050919050565b600061122e82611200565b9150819050919050565b7f4e487b7100000000000000000000000000000000000000000000000000000000600052601160045260246000fd5b600061127282610f3c565b915061127d83610f3c565b9250828210156112905761128f611238565b5b828203905092915050565b60006040820190506112b06000830185610f46565b6112bd602083018461101f565b9392505050565b60006112cf82610f75565b915063ffffffff8214156112e6576112e5611238565b5b600182019050919050565b60006112fc82610f3c565b915061130783610f3c565b9250827fffffffffffffffffffffffffffffffffffffffffffffffffffffffffffffffff0382111561133c5761133b611238565b5b828201905092915050565b7f4f776e61626c653a206e6577206f776e657220697320746865207a65726f206160008201527f6464726573730000000000000000000000000000000000000000000000000000602082015250565b60006113a3602683611175565b91506113ae82611347565b604082019050919050565b600060208201905081810360008301526113d281611396565b9050919050565b7f4e487b7100000000000000000000000000000000000000000000000000000000600052601260045260246000fd5b600061141382610f3c565b915061141e83610f3c565b92508261142e5761142d6113d9565b5b82820490509291505056fea2646970667358221220921a52b4644e12a23826e4e87b66931297be9ce2a2b260d6bf45f22825c4aa0a64736f6c63430008090033",
  "immutableReferences": {},
  "source": "// SPDX-License-Identifier: MIT\r\npragma solidity >=0.4.22;\r\n\r\nimport \"../contracts/BaseLottery.sol\";\r\n\r\ncontract LotteryResult is BaseLottery{\r\n\r\n    event onBalanceUpdate(uint _balance, address _wallet);\r\n\r\n    uint32 public lastResult;\r\n    uint32 public winnersCount = 0;\r\n    //save all last winners\r\n    mapping (uint32 => Player) public winnersMap;\r\n    mapping (address => uint) public balances;\r\n    //set the ticket result by the contract owner\r\n    function setResult(uint32 _result) external onlyOwner{\r\n        lastResult = _result;\r\n        processPrize(_result);\r\n        addPrizeToWallet();\r\n        playersCount = 0;\r\n        todaysPrize = 0;\r\n    }\r\n\r\n    //get account's balance\r\n    function getAccountBalance() public view returns(uint){\r\n        return balances[msg.sender];\r\n    }\r\n\r\n    //find the winners\r\n    function processPrize(uint32 _result) private {\r\n        winnersCount = 0;\r\n        for(uint32 i = 1; i <= playersCount; i++){\r\n            if(playersMap[i].ticket == _result){\r\n                winnersCount ++;\r\n                winnersMap[winnersCount] = playersMap[i];\r\n            }\r\n        }\r\n    }\r\n\r\n    //send prize money to the winners\r\n    function addPrizeToWallet() private{\r\n        //send fee to the owner\r\n        address _owner = owner();\r\n        addToBalance(_owner, todaysPrize/20);\r\n        //send fee to the winners\r\n        uint _prizeValue = (todaysPrize-todaysPrize/20)/winnersCount;\r\n        for(uint32 i =1; i <= winnersCount; i++){\r\n            addToBalance(winnersMap[winnersCount].wallet, _prizeValue);\r\n        }\r\n    }\r\n\r\n    function addToBalance(address _wallet, uint _amount) private{\r\n        balances[_wallet] += _amount;\r\n        emit onBalanceUpdate(balances[_wallet], _wallet);\r\n    }\r\n\r\n    function withdraw(uint _amount) public returns(bool){\r\n        require(balances[msg.sender] >= _amount);\r\n        (bool sent,) = payable(msg.sender).call{value: _amount}(\"\");\r\n        if(sent){\r\n            balances[msg.sender] -= _amount;\r\n            emit onBalanceUpdate(balances[msg.sender], msg.sender);\r\n        }\r\n        return sent;\r\n    }\r\n\r\n}",
  "sourcePath": "C:\\Users\\ndtr2\\Documents\\GitHub\\Lottery\\contracts\\LotteryResult.sol",
  "compiler": {
    "name": "solc",
    "version": "0.8.9+commit.e5eed63a.Emscripten.clang"
  },
  "schemaVersion": "3.4.3",
  "updatedAt": "2021-10-28T04:44:38.115Z",
  "networkType": "ethereum",
  "devdoc": {
    "kind": "dev",
    "methods": {
      "owner()": {
        "details": "Returns the address of the current owner."
      },
      "renounceOwnership()": {
        "details": "Leaves the contract without owner. It will not be possible to call `onlyOwner` functions anymore. Can only be called by the current owner. NOTE: Renouncing ownership will leave the contract without an owner, thereby removing any functionality that is only available to the owner."
      },
      "transferOwnership(address)": {
        "details": "Transfers ownership of the contract to a new account (`newOwner`). Can only be called by the current owner."
      }
    },
    "version": 1
  },
  "userdoc": {
    "kind": "user",
    "methods": {},
    "version": 1
  }
}